:020000040000FA
:100000004528B400142020082104031940283A2070
:1000100084133408800664000D280E28A00A0319F2
:10002000A10F0B2880064028FF3A8417800540283E
:10003000A301A200FF30A207031CA307031C402852
:100040000330A100E43026201A28A101F63EA000CA
:10005000A109031C3128FE300000A00703182C283A
:10006000A0076400A10F2B280000201837282018B3
:1000700039280800A009A109A00A0319A10A08004B
:10008000831303138312640008008A110A1248289C
:100090008316FF308500FF308700D93086008E3010
:1000A0009F00831286108316861083120611831612
:1000B000061183127830BC000130BD00F430B80066
:1000C0000130B900FA30C200C3017030C400013001
:1000D000C5007F30BA000130BB003C08C0003D08BD
:1000E000C1003C08BE003D08BF0064000708FF3C9B
:1000F0008A110A12031D8B2801303C02C000003017
:10010000031C013E3D02C1003C08BE003D08BF008B
:100110008A110A12352964000708333C8A110A1231
:100120000319C32864000708F33C8A110A12031953
:10013000C328640007083F3C8A110A120319C32828
:1001400064000708733C8A110A120319C32864006B
:100150000708373C8A110A120319C32864000708EC
:100160007F3C8A110A120319C32864000708F73C70
:100170008A110A120319C32864000708773C8A1100
:100180000A12031DCE284208C0004308C1003808E7
:10019000BE003908BF008A110A1235296400070819
:1001A000EF3C8A110A120319F82864000708DF3CA3
:1001B0008A110A120319F82864000708BF3C8A1143
:1001C0000A120319F82864000708CF3C8A110A12A2
:1001D0000319F828640007089F3C8A110A120319C2
:1001E000F828640007088F3C8A110A12031D0329AE
:1001F0004208C0004308C1003A08BE003B08BF00E7
:100200008A110A12352964000708FE3C8A110A1275
:1002100003192D2964000708FD3C8A110A120319ED
:100220002D2964000708FB3C8A110A1203192D29A5
:1002300064000708F93C8A110A1203192D29640089
:100240000708FC3C8A110A1203192D2964000708CB
:10025000F83C8A110A12031D35294408C0004508DC
:10026000C1003808BE003908BF003E08A0003F08A2
:10027000A1000630840004308A0101204008A0005B
:100280004108A1000630840002308A0101201430A8
:0E0290008A0118208A01752863008A014C2912
:02400E00763FFB
:00000001FF
